:10000000022ECE0200227FF11232C6781EA6077B96
:10001000FF7A137969121593781EE6FF12321702E0
:1000200032A23202314A90031FEEF0A3EFF0A3E4B4
:10003000F0A3F0A3F07B0190028204F0A37402F01D
:10004000A37402F09002ACEBF0A37402F0A3748CE2
:10005000F0ED4C701190028AF0A3F0F9900282F05A
:10006000A3C9F0A3E9F07881120A12122DAE780D1F
:10007000120A4BE47811F608F6900327F0A37410E7
:10008000F0900327E07004A3E064107049780D122B
:100090000A2B90035E120A57900362E4F0A304F067
:1000A000900285E0F9A3E0FAA3E0900364C9F0A30D
:1000B000EAF0A3E9F0E4FF1222C7900285E0F9A379
:1000C000E0FAA3E0900321C9F0A3EAF0A3E9F0E489
:1000D000900327F0A3F0900321E0FBA3E0FAA3E054
:1000E000F912075164E570030205C690000B120770
:1000F0006A640F6003020300900329E0F9A3E0FAA9
:10010000A3E09002E2C9F0A3EAF0A3E9F07BFF7A52
:100110001A79E1121593900321E0FBA3E0FAA3E022
:10012000F9A3EBF0A3EAF0A3E9F012075114540F7E
:1001300075F00DA4FFAEF07813EEF608EFF690021E
:10014000ACE0FBA3E0FAA3E02FF9EA3EFA90032922
:10015000EBF0A3EAF0A3E9F0E4FDFC900324E0FB5C
:10016000A3E0FAA3E02401F9E43AFAED25E0FFEC7C
:1001700033FEE92FF9EA3EFA120751FF900329E016
:10018000FBA3E475F0011207D1A9F0FAEF1207976B
:100190000DBD00010CED64054C70C0E4FCFD900346
:1001A00024E0FBA3E0FAA3E0240EF9E43AFAED25FB
:1001B000E0FFEC33FEE92FF9EA3EFA120751FF9017
:1001C0000329E0FBA3E475F0011207D1A9F0FAEFCF
:1001D0001207970DBD00010CED64064C70C0E4FCE5
:1001E000FD900324E0FBA3E0FAA3E0241CF9E43A29
:1001F000FAED25E0FFEC33FEE92FF9EA3EFA1207AB
:1002000051FF900329E0FBA3E475F0011207D1A987
:10021000F0FAEF1207970DBD00010CED64024C706F
:10022000C0900324E0FBA3E0FAA3E0F912075130E9
:10023000E60F900329E0FBA3E0FAA3E0F9E412073C
:1002400097900324E0FBA3E0FAA3E0F912075154CE
:100250000FFFBF0107781176000876017BFF7A1A3D
:1002600079F3121593900324E0FBA3E0FAA3E0F9DD
:10027000120751FF1232171232A27BFF7A1A79FC51
:10028000121593900324E0FBA3E0FAA3E0F9900099
:100290000B12076AFF1232171232A27BFF7A1B7908
:1002A0000C121593900324E0FBA3E0FAA3E0F9906D
:1002B000000C12076AFF1232171232A27BFF7A1B60
:1002C000791B121593900324E0FBA3E0FAA3E0F955
:1002D00090000D12076AFF1232171232A27BFF7ACA
:1002E0001B7927121593900324E0FBA3E0FAA3E007
:1002F000F990001A1230411232171232A20205C6CA
:10030000900321E0FBA3E0FAA3E0F9900396E4F068
:10031000A37408F0E4FDFC122C737BFF7A1B793583
:10032000121593900321E0FBA3E0FAA3E02408F95F
:10033000E43AFA900396E4F0A37403F0E4FDFC12AF
:100340002C731232A27BFF7A1B793712159390031C
:1003500021E0FBA3E0FAA3E0F990000B12076AFF8B
:100360001232171232A27BFF7A1B79461215939034
:100370000321E0FBA3E0FAA3E0F99000141230415E
:100380001231E81232A27BFF7A1B79531215939037
:100390000321E0FBA3E0FAA3E0F990001A12304138
:1003A0001231E81232A27BFF7A1B79631215939007
:1003B0000321E0FBA3E0FAA3E0F990001A12304118
:1003C000E4FCFD122DAE12319F1232A2900321E007
:1003D000FBA3E0FAA3E0F990001C1209E21229BB8A
:1003E0009002E2120A577BFF7A1B79701215931262
:1003F00032A27812E6184670030205C6900321E087
:10040000FBA3E0FAA3E0F990000B12076A64106006
:10041000030205957881120A1290032C120A579054
:100420000288E0FFA3E0900330CFF0A3EFF090024A
:1004300082E0FBA3E0FAA3E0F8AC02AD039002ACCB
:10044000E0FBA3E0FAA3E0F9120B7990039D74FF9F
:10045000F0A3741BF0A37485F0900282E0FBA3E08C
:10046000FAA3E0F9122FC89002ACE0F9A3E0FAA3D6
:10047000E09002E2C9F0A3EAF0A3E9F07BFF7A1B67
:100480007987121593900321E0FBA3E0FAA3E0F92A
:10049000900014120812FFAEF0E4FCFD781012096F
:1004A000AFC004C005C006C00790001A120812FFB2
:1004B000E4FCFDD003D002D001D000EB2FFFEA35E1
:1004C000F0FEED39FDEC38FC7881120A4B900332D6
:1004D000120A7C0000000090032CE0FCA3E0FDA3C6
:1004E000E0FEA3E0FF7881120A4B900330E0FFA307
:1004F000E0900288CFF0A3EFF0900332E0FCA3E09D
:10050000FDA3E0FEA3E0FFEC4D4E4F602C7BFF7A95
:100510001B799D121593900332E0FCA3E0FDA3E04C
:10052000FEA3E0FF12319F1232A2900332E0FCA33F
:10053000E0FDA3E0FEA3E0FF22780D120A12EF24F3
:10054000FFFFEE34FFFEED34FFFDEC34FFFC9003C3
:100550005E120A57900362E4F0A304F0900285E073
:10056000F9A3E0FAA3E0900364C9F0A3EAF0A3E9D9
:10057000F0E4FF1222C790028BE024FFF090028A81
:10058000E034FFF0900282E0FBA3E0FAA3E0F9E49C
:10059000120797801490031FE0FEA3E0FF90028AE9
:1005A000E06E7003A3E06F60577BFF7A1B79A412A3
:1005B0001593E47811F608F690028BE004F07006CB
:1005C00090028AE004F0900322E475F0201207BB49
:1005D000900328E004F07006900327E004F09003F5
:1005E00021E0FBA3E0FAA3E0F91207516003020047
:1005F00081900327E07004A3E0641070030200817F
:100600007812E618467005FFFEFDFC22900321E0FB
:10061000FBA3E0FAA3E0F990001C1209E2787D1236
:100620000A4B900014120812FFAEF0E4FCFD7810A3
:100630001209AFC004C005C006C00790001A120816
:1006400012FFE4FCFDD003D002D001D000EB2FFF5D
:10065000EA35F0FEED39FDEC38FC22E709F608DF5B
:10066000FA8046E709F208DFFA803E88828C83E749
:1006700009F0A3DFFA8032E309F608DFFA8078E3B5
:1006800009F208DFFA807088828C83E309F0A3DF27
:10069000FA806489828A83E0A3F608DFFA805889A9
:1006A000828A83E0A3F208DFFA804C80D280FA804D
:1006B000C680D4806980F28033801080A680EA8072
:1006C0009A80A880DA80E280CA803389828A83ECAB
:1006D000FAE493A3C8C582C8CCC583CCF0A3C8C52F
:1006E00082C8CCC583CCDFE9DEE7800D89828A83AE
:1006F000E493A3F608DFF9ECFAA9F0EDFB22898276
:100700008A83ECFAE0A3C8C582C8CCC583CCF0A329
:10071000C8C582C8CCC583CCDFEADEE880DB89822D
:100720008A83E493A3F208DFF980CC88F0EF6001BC
:100730000E4E60C388F0ED2402B4040050B9F58277
:10074000EB2402B4040050AF23234582239006AB70
:1007500073BB010689828A83E0225002E722BBFE36
:1007600002E32289828A83E49322BB010CE5822979
:10077000F582E5833AF583E0225006E92582F8E622
:1007800022BBFE06E92582F8E222E58229F582E510
:10079000833AF583E49322BB010689828A83F0229F
:1007A0005002F722BBFE01F322EF8DF0A4A8F0CF98
:1007B0008CF0A428CE8DF0A42EFE22C5F0F8A3E084
:1007C00028F0C5F0F8E582158270021583E038F054
:1007D00022A3F8E0C5F025F0F0E58215827002153D
:1007E00083E0C838F0E822BB010A89828A83E0F5F9
:1007F000F0A3E022500687F009E71922BBFE07E3C9
:10080000F5F009E3192289828A83E493F5F07401F3
:100810009322BB0110E58229F582E5833AF583E056
:10082000F5F0A3E0225009E92582F886F008E622D7
:10083000BBFE0AE92582F8E2F5F008E222E5832A08
:10084000F583E993F5F0A3E99322E88FF0A4CC8B2C
:10085000F0A42CFCE98EF0A42CFC8AF0EDA42CFC76
:10086000EA8EF0A4CDA8F08BF0A42DCC3825F0FDB5
:10087000E98FF0A42CCD35F0FCEB8EF0A4FEA9F0AE
:10088000EB8FF0A4CFC5F02ECD39FEE43CFCEAA4FA
:100890002DCE35F0FDE43CFC2275F008758200EFAA
:1008A0002FFFEE33FECD33CDCC33CCC58233C582A2
:1008B0009BED9AEC99E58298400CF582EE9BFEED5B
:1008C0009AFDEC99FC0FD5F0D6E4CEFBE4CDFAE42A
:1008D000CCF9A88222B800C1B90059BA002DEC8B1E
:1008E000F084CFCECDFCE5F0CBF97818EF2FFFEEFA
:1008F00033FEED33FDEC33FCEB33FB10D7039940B3
:1009000004EB99FB0FD8E5E4F9FA227818EF2FFFF2
:10091000EE33FEED33FDEC33FCC933C910D7059B34
:10092000E99A4007EC9BFCE99AF90FD8E0E4C9FA90
:10093000E4CCFB2275F010EF2FFFEE33FEED33FD1C
:10094000CC33CCC833C810D7079BEC9AE899400A3F
:10095000ED9BFDEC9AFCE899F80FD5F0DAE4CDFBBD
:10096000E4CCFAE4C8F922C3E49FFFE49EFEE49DD0
:10097000FDE49CFC22EB9FF5F0EA9E42F0E99D42EB
:10098000F0EC6480C864809845F022EB9FF5F0EAB3
:100990009E42F0E99D42F0E89C45F022E8600FECB1
:1009A000C313FCED13FDEE13FEEF13FFD8F122E8A5
:1009B000600FEFC333FFEE33FEED33FDEC33FCD8B5
:1009C000F122BB010789828A83020B965005E9F860
:1009D000020A12BBFE05E9F8020BA289828A830291
:1009E0000BAEBB010DE58229F582E5833AF5830262
:1009F0000B965007E92582F8020A12BBFE07E9258B
:100A000082F8020BA2E58229F582E5833AF583029A
:100A10000BAEE6FC08E6FD08E6FE08E6FF22E6FB74
:100A200008E6F908E6FA08E6CBF8227401FF3395E8
:100A3000E0FEFDFC080808E6CF2FF618E6CE3EF6ED
:100A400018E6CD3DF618E6CC3CF622ECF608EDF6BD
:100A500008EEF608EFF622ECF0A3EDF0A3EEF0A31B
:100A6000EFF022D083D082E493F608740193F60865
:100A7000740293F608740393F6740473A882858352
:100A8000F0D083D082120A93120A93120A93120AA8
:100A900093E473E493A3C583C5F0C583C8C582C836
:100AA000F0A3C583C5F0C583C8C582C822E709F68F
:100AB0000870FA8046E709F20870FA803E88828C56
:100AC00083E709F0A370FA807EE309F60870FA80E4
:100AD00076E309F20870FA806E88828C83E309F06D
:100AE000A370FA806289828A83E0A3F60870FA8094
:100AF0005689828A83E0A3F20870FA804A80D28005
:100B0000FA80C680D4806580F28031801080A68013
:100B1000EA809A80A880DA80E280CA803189828A5D
:100B200083ECFAE493A3C8C582C8CCC583CCF0A3F8
:100B3000C8C582C8CCC583CC70E9800D89828A8300
:100B4000E493A3F60870F9ECFAA9F0EDFB22898290
:100B50008A83ECFAE0A3C8C582C8CCC583CCF0A3D5
:100B6000C8C582C8CCC583CC70EA80DD89828A83FF
:100B7000E493A3F20870F980CE88F0ED2402B40467
:100B80000050C4F582EB2402B4040050BA2323457C
:100B90008223900AFD73E0FCA3E0FDA3E0FEA3E046
:100BA000FF22E2FC08E2FD08E2FE08E2FF22E493F5
:100BB000FC740193FD740293FE740393FF22F8E02A
:100BC000FBA3A3E0F925F0F0E582158270021583FE
:100BD000E0FA38F022EBF0A3EAF0A3E9F022BB013F
:100BE0001A89828A83D0F0D0E0F8D0E0F9D0E0FA18
:100BF000D0E0FBE8C0E0C0F0020BD55016E9F8D019
:100C000083D082D0E0F9D0E0FAD0E0FBC082C0838C
:100C1000020C53BBFE16E9F8D083D082D0E0F9D0A5
:100C2000E0FAD0E0FBC082C083020C5C22D083D00B
:100C300082F8E4937012740193700DA3A393F87477
:100C40000193F5828883E4737402936860EFA3A331
:100C5000A380DFEBF608EAF608E9F622EBF208EAF1
:100C6000F208E9F2229003B4EFF07B017A007900F8
:100C7000900285EBF0A3EAF0A3E9F090035E120A7C
:100C80007C00000000900362E4F0A304F0A3F0A352
:100C9000EAF0A3E9F09003B4E0FF1222C7900285C6
:100CA000E0FBA3E0FAA3E024BEF9EA3401FA788776
:100CB0007C007D007E007F1012072B788F120A12B5
:100CC0001229BB90035E120A579003B4E0FF900311
:100CD00062E4F0A304F0900285E0F9A3E0FAA3E057
:100CE000900364C9F0A3EAF0A3E9F01222C79002CE
:100CF00085E0FBA3E0FAA3E0240BF9E43AFA9003C1
:100D0000B5EBF0A3EAF0A3E9F0788F120A121229EA
:100D1000BB78A2120A4B9003B5E0FBA3E0FAA3E074
:100D2000F990000B12081245F078A2605A120A1EC0
:100D3000C000C001C002C0039003B5E0FBA3E0FA0D
:100D4000A3E0F990000B1230419003B5E0FBA3E063
:100D5000FAA3E0F990000512076AFD7C001207A9CA
:100D6000C006C00712303ED0E02FFFD0E03EFEE4C8
:100D7000FCFDD003D002D001D000EB2FFFEA3EFEF5
:100D8000ED39FDEC38806C120A1EC000C001C002B3
:100D9000C0031229AAC004C005C006C0079003B54D
:100DA000E0FBA3E0FAA3E0F990000512076AFFE474
:100DB000FCFDFED003D002D001D00012084AC004CE
:100DC000C005C006C007123033E4FCFDD003D002DA
:100DD000D001D000EB2FFFEA3EFEED39FDEC38FCF0
:100DE000D003D002D001D000EB2FFFEA3EFEE93D58
:100DF000FDE83CFC78A2120A4B9003B5E0FBA3E0AF
:100E0000FAA3E0F990000212076A78A0760008F6CB
:100E10001207E7FFAEF01230477885A60608A6074E
:100E2000788F120A121229BBC004C005C006C00781
:100E3000123033E4FCFDD003D002D001D000EB2F00
:100E4000FFEA3EFEED39FDEC38FC789C120A4B7847
:100E50008BE624FA600F24FB601A14601724FE60EE
:100E600004240A702A7881120A6300000002E478E0
:100E70009BF680249003B5E0FBA3E0FAA3E090008A
:100E8000211229B77881120A4B789B760180097B61
:100E9000FF7A18799A121593788BE624FA60172452
:100EA000FB602B14602024FE6014240A70287BFF52
:100EB0007A1879B180267BFF7A1879C4801E7BFF6F
:100EC0007A1879D380167BFF7A1879E6800E7BFF3B
:100ED0007A1879F980067BFF7A18799A1215937B34
:100EE000FF7A1979081215937BFF7A19792912155F
:100EF000939003B5E0FBA3E0FAA3E0F91207E7FF44
:100F0000AEF01230471231E81232A27BFF7A197923
:100F10003B1215939003B5E0FBA3E0FAA3E0F99030
:100F2000000212076AFF1232171232A27BFF7A19EF
:100F3000794D1215931230331231E81232A27BFF31
:100F40007A19795F1215939003B5E0FBA3E0FAA339
:100F5000E0F990000512076AFF1232171232A27BE5
:100F6000FF7A1979711215939003B5E0FBA3E0FAAB
:100F7000A3E0F99000061230411231E81232A27B50
:100F8000FF7A1979831215939003B5E0FBA3E0FA79
:100F9000A3E0F99000081230411231E81232A27B2E
:100FA000FF7A1979941215939003B5E0FBA3E0FA48
:100FB000A3E0F990000A12076AFF1232171232A258
:100FC0007BFF7A1979A31215939003B5E0FBA3E098
:100FD000FAA3E0F990000B1230411231E81232A26C
:100FE0007BFF7A1979B41215939003B5E0FBA3E067
:100FF000FAA3E0F990000D1230411231E81232A24A
:101000007BFF7A1979C61215939003B5E0FBA3E034
:10101000FAA3E0F990000F1230411231E81232A227
:101020007BFF7A1979D51215939003B5E0FBA3E005
:10103000FAA3E0F99000111209E21229BB12319FC4
:101040001232A27BFF7A1979E71215939003B5E06B
:10105000FBA3E0FAA3E0F99000151209E21229BB04
:1010600012319F1232A27BFF7A1979F9121593126D
:1010700029AA12319F1232A27BFF7A1A790B12151C
:10108000939003B5E0FBA3E0FAA3E0F990001D12F2
:1010900030411231E81232A27BFF7A1A791D121503
:1010A000939003B5E0FBA3E0FAA3E0F990001F12D0
:1010B00030411231E81232A27BFF7A1A792D1215D3
:1010C000939003B5E0FBA3E0FAA3E0F990002112AE
:1010D00009E21229BB12319F1232A27BFF7A1A79E0
:1010E0003F1215939003B5E0FBA3E0FAA3E0F9905B
:1010F00000251230411231E81232A27BFF7A1A79B0
:101100004F1215939003B5E0FBA3E0FAA3E0F9902A
:1011100000271230411231E81232A27BFF7A1A798D
:101120005F1215937BFF7A1A7982121593788F12CA
:101130000A121229BB12319F1232A27BFF7A1A794E
:10114000951215937893120A121229BB12319F122D
:1011500032A27BFF7A1A79A8121593789C120A1290
:1011600012319F1232A27BFF7A1A79BB1215937843
:10117000A2120A1212319F1232A27BFF7A1A79CE82
:101180001215937881120A1212319F1232A27F0037
:10119000223A525A30300A0D003D3D3D3D3D3D3D25
:1011A0003D3D3D3D3D3D3D3D3D3D3D3D3D3D3D3D6F
:1011B0000A0D00383035312D494445207379737458
:1011C000656D2E2E2E0A0D0056657273696F6E20A6
:1011D000362E300A0D003131204D41792032303029
:1011E00036204031393A33300A0D006B746B6F731F
:1011F0006F6E406B6D69746C2E61632E74680A0D9E
:1012000000616C6C20726967687420726573657226
:101210007665642E0A0D0048617264206469736B00
:1012200020646961672E2E2E0A0D000A0D00686584
:101230006C6C6F0A0D003A6572720A0D005265639C
:1012400065697665642025730A0D005772697465B7
:10125000204275666665720A0D00577269746520D2
:1012600052656769737465720A0D00577269746517
:1012700020536563746F720A00436F6D6D616E6415
:10128000206E6F7420696D706C656D656E74656439
:101290002040775B325D0A0D005265616420427523
:1012A000666665720A005265706F72742048444425
:1012B000204275666665720A005265616420536556
:1012C00063746F720A003A5245522562580A003A16
:1012D0005254522562580A00436F6D6D616E64204E
:1012E0006E6F7420696D706C656D656E74656420D9
:1012F00040725B325D0A00436F6D6D616E64206EFB
:101300006F7420696D706C656D656E7465642040E6
:101310005B315D0A005244204552520D0A0044726E
:1013200069766520737570706F7274204C42410944
:101330004472697665203A2000204C4241203A20D0
:1013400000204E756D536563746F7273093A200007
:10135000433A483A533D003A00415441204C4241FF
:101360002072656164200020004154412045727262
:101370006F723A20000D0A5363616E6E696E6720CA
:1013800049444520696E746572666163652E2E2E30
:101390000D0A006174614472697665496E666F2E4C
:1013A00063796C696E6465727320203D202564202A
:1013B0005B2558485D0A0D00617461447269766569
:1013C000496E666F2E6865616473203D20256264F6
:1013D000205B2562585D0A0D006174614472697674
:1013E00065496E666F2E736563746F727320203D5E
:1013F00020256264205B2562585D0A0D00617461DE
:101400004472697665496E666F2E4C424173757001
:10141000706F727420203D20256264205B25625825
:101420005D0A0D006174614472697665496E666F8C
:101430002E73697A65696E736563746F72732020A9
:101440003D20256C64205B256C585D0A0D004472BC
:1014500069766520303A20256C644D4220004C426C
:1014600041206D6F6465202D2D204D4F44454C3A31
:101470002000447269766520303A2025644D422070
:1014800000434853206D6F646520433D2564204828
:101490003D256420533D2564202D2D204D4F44458E
:1014A0004C3A2000414444522000253032625820FA
:1014B000000D0A00253034582000253032625820B3
:1014C00025303262582000090025632563003A5216
:1014D000534325303262580A0D003A52534E25309C
:1014E0003262580A0D003A52434C25303262580A93
:1014F0000D003A52434825303262580A0D003A52E4
:10150000534425303262580A0D003A525452253065
:101510003262580A0D003A52455225303262580A5A
:101520000D00202020202000E50824E2F582E4348C
:1015300002F583E00508229002DF3007039002E203
:10154000E475F001120BBE0207512000E97F2ED294
:10155000008018EF540F2490D43440D4FF30040B93
:10156000EF24BFB41A0050032461FFE5096002159F
:1015700009050CE50C7002050B30070E9002DFE444
:1015800075F001120BBEEF0207970232AC7403D262
:10159000078003E4C207F5089002DF120BD5E4F5DB
:1015A00009F50BF50CE50960077F2012156B80F536
:1015B000750AFFC201C200C202C203C205C206C24E
:1015C00008121537FF700D3007057F0012157CAF2C
:1015D0000CAE0B22B4255FC2D5C204121537FF240E
:1015E000D0B40A00501A75F00A780930D50508B64B
:1015F000FF0106C6A426F620D5047002D20380D9C6
:1016000024CFB41A00EF5004C2E5D20402177DD2F1
:101610000180C6D20080C0D20280BCD2D580BAD2AE
:101620000580B47F2012156B2002077401B50900F4
:1016300040F1121528FF12156B0215A5D208D2062B
:101640008095121528FB121528FA121528F94A4B15
:101650007006794E7A187BFF20022EE509602A7EFB
:10166000008E8275830012076A60060EEE650A70AE
:10167000F0C2D5EBC0E0EAC0E0E9C0E0EE1217C46A
:10168000D0E0F9D0E0FAD0E0FB120751FF60AAEBFE
:10169000C0E0EAC0E0E9C0E012156BD0E02401F937
:1016A000D0E03400FAD0E0FBE50A0460DCD50AD9CA
:1016B00080877BFF7A1779C0D202809C79108002E4
:1016C0007908C206C2088008D2D5790A8004790A4E
:1016D000C2D5E50A047002F50AE4FAFDFEFF121510
:1016E00028FC7B08200113121528FD7B1030000A0E
:1016F000121528FE121528FF7B20EC3382D592D5D7
:101700005013C3E43000069FFFE49EFEE420010373
:101710009DFDE49CFCE4CBF8C201EC700CCFCECD77
:10172000CCE824F8F870F38017C3EF33FFEE33FEF4
:10173000ED33FDEC33FCEB33FB994002FB0FD8E9B2
:10174000EB300105F8D0E0C448B201C0E00AEC4D2E
:101750004E4F78207B0070C2EAB50A0040BCC0E062
:101760001217C6D0F0D0E0200104C4C0E0C4B2011A
:10177000C0F0121554D0F0D5F0EB0215A5120C2DC7
:1017800016425316BC5816134C160F4216C04F166D
:10179000C84416C84916284316CE5516B24616B286
:1017A0004516B247186E5016172D161B2E163E2BD7
:1017B000161F23163C2018572A15D7480000163646
:1017C0003F3F3F00790AA2D5200314300509B91024
:1017D000020404B9080104A2D52006025001042025
:1017E00002689202B509005034C0E07F203003192E
:1017F0007F30A20272067205500F12181DC202C27B
:1018000006C205C2087F30800F300503E9C0E01230
:10181000156B300503D0E0F9D0E0B509CC300517E1
:101820007F30B9100C12156B7F583004077F788019
:1018300003B9080312156B3002057F2D02156B7F6B
:10184000202008F87F2B2006F322920280CF286EFA
:10185000756C6C2900D2011215283001F8C201788C
:101860000930D50108F60215D72D504349581215F5
:10187000282403B405004001E49018699312155C14
:10188000743A12155CD2037509040216BC282800AC
:101890002D32292A00292B003D00466F756E643ACF
:1018A000204E6F20506172746974696F6E210D0A49
:1018B00000466F756E643A20444F534641542031C0
:1018C000360D0A00466F756E643A20464154313633
:1018D0000D0A00466F756E643A2046415431362039
:1018E0004C42410D0A00466F756E643A20464154E1
:1018F0003332204C42410D0A00466F756E643A2027
:1019000046415433320D0A00425042205B627062FD
:101910003731305D3A2D2D2D2D2D2D2D2D2D2D2DA9
:101920002D2D2D2D2D2D0A0D0062706242797465CA
:1019300073506572536563203A200062706253658C
:1019400063506572436C757374203A200062706254
:10195000526573536563746F727320203A2000627E
:1019600070624641547309202020202020203A2014
:1019700000627062526F6F74446972456E747320B6
:101980003A2000627062536563746F72730920209D
:10199000203A20006270624D656469610920202050
:1019A0003A200062706246415473656373092020D7
:1019B000203A200062706253656350657254726110
:1019C000636B203A2000627062486561647309208D
:1019D00020203A200062706248696464656E536535
:1019E000637320203A200062706248756765536512
:1019F00063746F7273203A200062706242696746B6
:101A000041547365637320203A2000627062457808
:101A100074466C616773092020203A20006270626E
:101A2000465356657273092020203A200062706286
:101A3000526F6F74436C7573742020203A200062DB
:101A400070624653496E666F092020203A2000627A
:101A500070624261636B7570092020203A20004556
:101A60006E64205B6270623731305D2D2D2D2D2D1F
:101A70002D2D2D2D2D2D2D2D2D2D2D2D2D2D2D0AB9
:101A80000D00466972737420736563746F72202051
:101A900020203A200053697A652020202020202031
:101AA00020202020203A200046697273742046616D
:101AB0007420536563746F723A20004669727374C0
:101AC00020446174612053656374203A20004669A4
:101AD0007273742044697220436C757374203A20C9
:101AE000004C6F6E67206E616D6520656E74727953
:101AF0000D0A007765436E74203A200077654174C3
:101B00007472696275746573203A20007765526556
:101B100073657276656431203A2000776543686B9F
:101B200073756D203A20007765526573657276652E
:101B300064323A20002E00646541747472696275E3
:101B40007465733A2000646548696768436C75730F
:101B5000743A0064655374617274436C7573746590
:101B6000723A005374617274536563746F723A0011
:101B7000646546696C6553697A653A20256C642012
:101B800062797465002F004C6F6E674E616D65421F
:101B90007566666572203D2025730D0A00727661B8
:101BA0006C3A20004E6F726D616C2046696C652046
:101BB000656E7472792E2E2E0D0A003E00E490039D
:101BC0004AF0A3F078577C037D017BFF7A157922D8
:101BD000FE7F0612072B758E0C123253D2AFD2AC99
:101BE0007590F8E47842F67BFF7A1179911215939B
:101BF0007BFF7A1179991215937BFF7A1179B312D1
:101C000015937BFF7A1179C81215937BFF7A1179AE
:101C1000D61215937BFF7A1179EB1215937BFF7A1D
:101C20001279011215937BFF7A1179991215937B22
:101C3000FF7A1279171215937BFF7A12792B1215FE
:101C400093C297123264D297123264123240121E3B
:101C50002DE4FF120C657D027C00E4FFFE120026DD
:101C6000122E401232407BFF7A12792E021E1B7810
:101C700042E660FB7822E6643A60147BFF7A1279D0
:101C800036121593E47842F67822F608F680E0786A
:101C900042E62421F8E6FF643A60D4EFB40DD09018
:101CA00002E2E4F0A37400F0A37422F07BFF7A1246
:101CB000793D121593E47842F67823E6248E70037A
:101CC000021DAC24FB6003021E217824E6249D70D3
:101CD00003021D6824F16016147003021D5F2411B5
:101CE0006003021DA47BFF7A12794B021E1B7BFF4F
:101CF0007A12795A1215937825E6900357F008E680
:101D0000A3F09003717401F0A37403F0A37454F072
:101D1000A37410F07B017A03795712209290034C40
:101D2000120A577827E6900357F008E6A3F09003CD
:101D3000717401F0A37403F0A37454F0A37410F051
:101D40007B017A037957122092900350120A579020
:101D5000034CA3A3A3E0FFA3A3A3A3E0FD803F7BC9
:101D6000FF7A12796B021E1B7825E6900357F00864
:101D7000E6A3F09003717401F0A37403F0A374540C
:101D8000F0A37410F07B017A03795712209290032C
:101D90004C120A5790034CA3A3A3E0FD7FF7123126
:101DA00076021C6F7BFF7A127979806F7824E624A3
:101DB0009B603E24F5601D24FE602814602B146097
:101DC00042241270507BFF7A127999121593122FC8
:101DD0005A021C6F7BFF7A1279A612159312248F78
:101DE000021C6F122E40021C6F7BFF7A1279B980A1
:101DF0002A7FF11232C69002E2EFF07BFF7A12796D
:101E0000C680187FF71232C69002E2EFF07BFF7AAD
:101E10001279CF80067BFF7A1279D8121593021CB3
:101E20006F7BFF7A1279F7121593021C6F9003C033
:101E30007401F0A37400F0A37400F07BFF7A1379AF
:101E4000751215931231C87DEC7FF71232CA7D08E6
:101E50007F081231CC7FC87E00123268122F5A9050
:101E60000003E0FE900002E07C0024007845F6ECE0
:101E70003E18F6900006E07846F690000CE008F672
:101E800090006AE0784CF690007BE0FFE4FDFE787D
:101E900048120A4BE4FF7E01FDFC7848120A1E122C
:101EA000084AA804A905AA06AB0790007AE0FFE457
:101EB000FCFDFEEB2FFFEE3AFEED39FDEC38FC7831
:101EC00048120A4BE4FF7E01FDFC7848120A1E12FC
:101ED000084AA804A905AA06AB07900079E0FFE428
:101EE000FCFDFEEB2FFFEE3AFEED39FDEC38FC7801
:101EF00048120A4BE4FF7E01FDFC7848120A1E12CC
:101F0000084AA804A905AA06AB07900078E0FFE4F8
:101F1000FCFDFEEB2FFFEE3AFEED39FDEC38FC78D0
:101F200048120A4B7BFF7A1379937844E6FE08E661
:101F3000FF9002E2EEF0A3EFF0A3EEF0A3EFF012B9
:101F400015937BFF7A1379B87846E69002E2F0A306
:101F5000F01215937BFF7A1379D97847E69002E265
:101F6000F0A3F01215937BFF7A1379FD784CE6907D
:101F700002E2F0A3F01215937BFF7A1479247848DB
:101F8000120A129002E2120A577848120A129002BC
:101F9000E6120A57121593E4FFEFC394285037EF67
:101FA0002437FDE433FC9003C0E0FBA3E0FAA3E098
:101FB000F98D828C8312076AFE744D2FF8A606EF06
:101FC0002436F582E433F58312076AFE744E2FF847
:101FD000A6060F0F80C3E47875F6784CE6602AE415
:101FE0007BA17A07F9F8C0007848120A12D00012D3
:101FF00008D59002E2120A577BFF7A14794E121527
:10200000937BFF7A14795E80747844E6FE08E6FFDD
:10201000E4FCFDC004A905AA06AB0708E6FFE4FE40
:10202000D00012084AC004A905AA06AB077847E603
:10203000FFE4FCFDFED00012084A7848120A4BE487
:102040007BA17A07F9F8C0007848120A12D0001272
:1020500008D59002E2120A577BFF7A1479721215A2
:10206000937BFF7A1479817844E6FF08E69002E2D8
:10207000CFF0A3EFF008E6A3F008E6A3F012159363
:102080007B007A00794D1230997BFF7A12792B020E
:10209000159390036EEBF0A3EAF0A3E9F0900377B9
:1020A000120A7C00000000E4900375F0A3F0900396
:1020B00071E0FBA3E0FAA3E0F9EA494B602090034A
:1020C0006EE0FBA3E0FAA3E0F9EBC0E0EAC0E0E9D0
:1020D000C0E0A3E0FBA3E0FAA3E0F9120BDE90035B
:1020E0006EE0FBA3E475F0011207D1A9F0FA120724
:1020F0005190037BF0E0FFC394094006EFD3940DA9
:1021000040DCEF642060D7EFB42D0C900375E0F055
:10211000A3E04403F0801D90037BE0B42B0C9003FC
:1021200075E0F0A3E04401F0800A90036F74FFF5BE
:10213000F01207BB900374E06004641070519003C8
:102140006EE0FBA3E0FAA3E0F91207516430600BE4
:10215000900374E07039740AF08034900001120723
:102160006AFF64786004EFB4581C900375E0F0A334
:10217000E04401F09003747410F090036FE475F084
:10218000021207BB8009900374E070037408F0909A
:10219000036EE0FBA3E475F0011207D1A9F0FA1277
:1021A000075190037BF0E0FFC39461400AEFD394A2
:1021B0007A5004EF54DFF090037BE024D0F0E0FF8E
:1021C000C3940A400CEF9411407B90037BE024F908
:1021D000F0900374E0FF90037BE0D39F506790037F
:1021E00075E0F0A3E04401F07E00E4FCFDA3E0F81C
:1021F000A3E0F9A3E0FAA3E0FB12084AC8ECC8C9BF
:10220000EDC9CAEECACBEFCB90037BE0FFE4FCFD47
:10221000FEEB2FFFEE3AFEED39FDEC38FC90037734
:10222000120A57900377E0FCA3E0FDA3E0FEA3E0D1
:10223000FFEC33400302218F900375E0F0A3E044EC
:1022400004F002218F900376E020E006E4FFFEFD1B
:10225000FC22900371E0FBA3E0FAA3E0F9EA494B0A
:10226000602690036EE0FBA3E0FAA3E024FFF9EA06
:1022700034FFFAEBC0E0EAC0E0E9C0E0A3E0FBA372
:10228000E0FAA3E0F9120BDE900375A3E030E2124E
:1022900030E107E4FFFEFD7C802274FFFFFEFD7C41
:1022A0007F22900376E030E10FA3E0FCA3E0FDA3E2
:1022B000E0FEA3E0FF020967900377E0FCA3E0FDE6
:1022C000A3E0FEA3E0FF2290035DEFF0784CE67000
:1022D0000302235CA3E0FCA3E0FDA3E0FEA3E0FF78
:1022E000900388120A57900362E0FFA3E090038CEA
:1022F000CFF0A3EFF0900364E0F9A3E0FAA3E0903D
:10230000038EC9F0A3EAF0A3E9F090035DE0FF12A9
:102310002AC890036DEFF07BFF7A13791E12159394
:1023200090035DE0FF1232177BFF7A1379391215A3
:102330009390035EE0FCA3E0FDA3E0FEA3E0FF12A8
:10234000319F7BFF7A137941121593900362E0FE6F
:10235000A3E0FF1231E81232A202247D7847E6FBA7
:10236000E4FAF9F890035EE0FCA3E0FDA3E0FEA32D
:10237000E0FF1208D5EB2401FEE43390036BF0A3D9
:10238000CEF090035EE0FCA3E0FDA3E0FEA3E0FF3F
:10239000C0077847E6FBE4FAF9F8D0071208D590B1
:1023A000035E120A577846E6FBE4FAF9F890035EFA
:1023B000E0FCA3E0FDA3E0FEA3E0FF1208D5AF031D
:1023C000900369E4F0A3EFF090035EE0FCA3E0FD6E
:1023D000A3E0FEA3E0FFC0077846E6FBE4FAF9F8C5
:1023E000D0071208D590035E120A5790035EA3A38C
:1023F000E0FFA3E0900367CFF0A3EFF07BFF7A1339
:102400007950121593900367E0FEA3E0FF1231E8C4
:102410007BFF7A137957121593900369A3E0FF129B
:1024200032177BFF7A13795712159390036BA3E051
:10243000FF1232171232A290035DE0FF900369A3EE
:10244000E0FDA3A3E0900380F0900362E0FBA3E033
:10245000900381CBF0A3EBF0900364E0F9A3E0FAE2
:10246000A3E0900383C9F0A3EAF0A3E9F090036727
:10247000E0FAA3E0FB122BCD90036DEFF012248F56
:1024800090036DE0600312000690036DE0FF227B75
:10249000FF7A1479A4121593E49003ACF0A3F090A2
:1024A00003ACE0FEA3E0FFD3940FEE648094805071
:1024B0001E7BFF7A1479AA9002E2EFF01215939036
:1024C00003ADE004F070D89003ACE004F080D07B62
:1024D000FF7A1479B1121593E49003AAF0A3F09057
:1024E00003AAE0FEA3E0FFD3941FEE648094804033
:1024F000030226517BFF7A1479B4EFC4F8540FC855
:1025000068FFEEC454F0489002E2F0A3EFF0121519
:1025100093E49003ACF0A3F07BFF7A1479BA9003B4
:10252000AAE0FEA3E07803C333CE33CED8F9FF9000
:1025300003ADE02FFF9003ACE03EFEEF25E0FFEEA1
:1025400033FE74002FF58274003EF583E09002E2C2
:10255000F074012FF58274003EF583E09002E3F001
:102560001215939003ADE004F070069003ACE00404
:10257000F0C39003ADE094089003ACE064809480D5
:1025800040967BFF7A1479C7121593E49003ACF060
:10259000A3F09003ACE0FCA3E0FDC39408EC6480DE
:1025A0009480400302262D9003AAE0FEA3E0780366
:1025B000C333CE33CED8F92DFFEC3EFEEF25E0FF3E
:1025C000EE33FE74012FF58274003EF583E0900334
:1025D000AEF0D3947A5006E0C3942050069003AE38
:1025E000742EF074002FF58274003EF583E09003A2
:1025F000AFF0D3947A5006E0C3942050069003AF16
:10260000742EF07BFF7A1479C99003AFE09002E258
:10261000F09003AEE09002E3F01215939003ADE06A
:1026200004F070069003ACE004F00225927BFF7A80
:1026300012792B1215937F0A7E001232689003AB39
:10264000E004F060030224DF9003AAE004F0022417
:10265000DF229002AFEFF0A3EDF0A3EBF0601E904D
:1026600002B3E0FCA3E0FDA3E0FEA3E0FFEC3350E7
:102670000C9002B3A3A3A3E0120967800E9002B3EB
:10268000E0FCA3E0FDA3E0FEA3E0FF9002DA120A63
:10269000579002B0E014FFA3E07E0060027E01C309
:1026A000EF9E9002DEF09002B77401F0A37402F086
:1026B000A374DAF09002B7E0FBA374FFF5F0120701
:1026C000BBA9F0FAE412079780269002DEE0FF141F
:1026D000F0EF7003022772E4FFFEFDFC9002DAE0E7
:1026E000F8A3E0F9A3E0FAA3E0FBC312098B60664C
:1026F0009002AFE0FB3395E0FAF9F89002DAE0FCE3
:10270000A3E0FDA3E0FEA3E0FF1208D574CD2BF5F6
:102710008274323AF583E493FF9002B7E0FBA3742E
:10272000FFF5F01207BBA9F0FAEF1207979002DA53
:10273000E0FCA3E0FDA3E0FEA3E0FFC0079002AF32
:10274000E0FB3395E0FAF9F8D0071208D59002DAE9
:10275000120A570226CA9002B2E0FF9002B7E0FBCD
:10276000A374FFF5F01207BBA9F0FAEF1207970266
:1027700026CA9002B1E0605F9002B3E0FCA3E0FDE6
:10278000A3E0FEA3EC335012A3E0FBA374FFF5F02B
:102790001207BBA9F0FA742D803AE4FFFEFDFC900D
:1027A00002B3E0F8A3E0F9A3E0FAA3E0FBD3120937
:1027B000759002B7E0FB400FA374FFF5F01207BB62
:1027C000A9F0FA742B800DA374FFF5F01207BBA9D2
:1027D000F0FA74201207979002B0E09002DEF090B9
:1027E00002DEE0FF14F0EF60199002B7E0FBA3E413
:1027F00075F0011207D1A9F0FA120751FF1232AC9D
:1028000080DD22900307120A5790031D7400F0A385
:102810007400F0789BE69003076022E0FCA3E0FDE3
:10282000A3E0FEA3E0FF78021209AF900313120A9F
:102830005790030F120A7C0FFFFFFF8020E0FCA3DC
:10284000E0FDA3E0FEA3E0FF78011209AF900313BF
:10285000120A5790030F120A7C0000FFFF7885E6EA
:10286000FE08E6FBAA06E4F9F8900313E0FCA3E0F7
:10287000FDA3E0FEA3E0FF1208D5789C120A1EEF2C
:102880002BFFEE3AFEED39FDEC38FC900317120AEF
:10289000577885E6FE08E6FBAA06E4F9F8900313EC
:1028A000E0FCA3E0FDA3E0FEA3E0FF1208D5AF0328
:1028B00090031BEAF0A3EFF07897120A1290031727
:1028C000E0F8A3E0F9A3E0FAA3E0FBC312098B60F0
:1028D0004C900317E0FCA3E0FDA3E0FEA3E0FF9013
:1028E000035E120A57900362E4F0A304F090031D04
:1028F000E0FEA3E0AA06F9900364E4F0A3EAF0A3E3
:10290000E9F0E4FF1222C7EF70C7900317E0FCA3C1
:10291000E0FDA3E0FEA3E0FF7897120A4B90031BB3
:10292000E0FEA3E0FFA3E0FCA3E07B002FF9EC3E78
:10293000FA1209C290030FE0F8A3E0F9A3E0FAA3AA
:10294000E05FFFEA5EFEE95DFDE85CFC90030B12D0
:102950000A5790030FE0FCA3E0FDA3E0FEA3E0FF15
:1029600090030BE0F8A3E0F9A3E0FAA3E0FBC312A5
:10297000098B700A90030B120A7C000000007BFF99
:102980007A1B79BB12159390030BE0FCA3E0FDA327
:10299000E0FEA3E0FF12319F1232A290030BE0FC95
:1029A000A3E0FDA3E0FEA3E0FF229003B5E0FBA3BC
:1029B000E0FAA3E0900019F91209E2900336120A36
:1029C00057900336E0FCA3A3A3E4FFFEFDECA312A3
:1029D0000A57900336A3E0FDE4FFFEE4FC90033EBB
:1029E000120A57900336A3A3E0FEE4FFE4FDFC9037
:1029F0000342120A57900336A3A3A3E0FFE4FEFDAF
:102A0000FC900346120A57900342E0FCA3E0FDA3AA
:102A1000E0FEA3E0FF790878081209AF90034212A4
:102A20000A57C004C005C006C007900346E0FCA3D7
:102A3000E0FDA3E0FEA3E0FF791878181209AF903B
:102A40000346120A57D003D002D001D000EF2BFF6B
:102A5000EE3AFEED39FDEC38FCC004C005C006C0FE
:102A60000790033EE0FCA3E0FDA3E0FEA3E0FF79B6
:102A700008780812099C90033E120A57D003D0022E
:102A8000D001D000EB2FFFEA3EFEE93DFDE83CFC23
:102A9000C004C005C006C00790033AE0FCA3E0FDF7
:102AA000A3E0FEA3E0FF7918781812099C90033A7E
:102AB000120A57D003D002D001D000EB2FFFEA3E1C
:102AC000FEE93DFDE83CFC22900387EFF07BFF7AB6
:102AD000137959121593900388E0FCA3E0FDA3E05D
:102AE000FEA3E0FF12319F7BFF7A137967121593E3
:102AF00090038CE0FEA3E0FF1231E87BFF7A1379AC
:102B00006712159390038EA3E0FAA3E0AE02FF12C2
:102B100031E81232A2900388A3A3A3E0FFE478195E
:102B2000F608A607900388E0FCA3E0FDA3E0FEA35F
:102B3000E0FF780812099C900388120A57900388D6
:102B4000A3A3E0FEA3E0FF7815EEF608EFF6FBAADC
:102B500006900388E0FCA3E0FDA3E0FEA3E0FF787D
:102B60001012099C900388120A57900388E0FCA376
:102B7000A3A3E0540FFFE4FEEF4440FF7817EEF606
:102B800008EFF6FD900387E0FFC002C003781AE665
:102B9000900380F090038CE0FBA3E0900381CBF0E6
:102BA000A3EBF090038EE0F9A3E0FAA3E090038397
:102BB000C9F0A3EAF0A3E9F0D003D002122BCD783C
:102BC0001BEFF66003120006781BE6FF2290037CE1
:102BD000EFF0A3EDF0A3EAF0A3EBF01231C89003FD
:102BE00086EFF090037CE07F0060027F10EF24A06E
:102BF000FF90037DE02FFD7FF61232CA90037EE046
:102C0000FD7FF51232CA90037EA3E0FD7FF41232FD
:102C1000CA900380E0FD7FF31232CA900381A3E0E3
:102C2000FD7FF21232CA7D217FF71232CA1231C8FB
:102C3000900386EFF030E00C7BFF7A1379151215C4
:102C4000937F0122E4FD7F081231CC900383E0FBE7
:102C5000A3E0FAA3E0F9900381E0FCA3E0FD1231C8
:102C6000147FF71232C6900386EFF07F0030E00247
:102C70007F0122900394ECF0A3EDF0900391EBF030
:102C8000A3EAF0A3E9F0E4900398F0A3F0EA494B3B
:102C90007003022D18900398E475F0011207D1FE1D
:102CA000D3900395E095F0900394E09E4015900337
:102CB00091E0FBA3E475F0011207D1A9F0FA120725
:102CC0005170D2E4900398F0A3F0900396E0FEA335
:102CD000E0FFC3900399E09F900398E09E503990E5
:102CE0000391E0FBA3E0FAA3E0F91207516014900E
:102CF0000391A3E475F0011207D1A9F0FA1207516C
:102D0000FF80027F201232AC900399E004F070BA89
:102D1000900398E004F080B2229003A3120A579027
:102D200003A7EBF0A3EAF0A3E9F0E4781FF6781F1D
:102D3000E6C378A196E4189650739003A3E0FCA331
:102D4000E0FDA3E0FEA3E02408FFE43EFEE43DFD39
:102D5000E43CFC122DAEC004A905AA06AB07781FFF
:102D6000E6FFE4FCFDFED000EB2FFFEE3AFEED396E
:102D7000FDEC38FC90035E120A57900362E4F0A366
:102D800004F0781FE625E0FE9003A7E0FBA3E0FA3D
:102D9000A3E02400F9EA3EFA900364EBF0A3EAF022
:102DA000A3E9F0E4FF1222C7781F06808122900376
:102DB000B0120A577BFF7A18798D1215939003B0E1
:102DC000E0FCA3E0FDA3E0FEA3E0FF12319F7BFF48
:102DD0007A18799012159378A0E6FE08E6FF123172
:102DE000E87BFF7A18799512159378A2120A1212CD
:102DF000319F7BFF7A1879981215939003B0E0FC0D
:102E0000A3E0FDA3E0FEA3E024FEFFEE34FFFEED11
:102E100034FFFDEC34FFFCC004A905AA06AB07781B
:102E2000A0E6FE08E6FFE4FCFDD00012084A78A206
:102E3000120A1EEF2BFFEE3AFEED39FDEC38FC22B4
:102E40007BFF7A12792B1215937FF2123273900264
:102E5000E2EFF07BFF7A1479CE1215937FF31232F2
:102E6000739002E2EFF07BFF7A1479DA1215937F08
:102E7000F41232739002E2EFF07BFF7A1479E612DB
:102E800015937FF51232739002E2EFF07BFF7A1414
:102E900079F21215937FF61232739002E2EFF07B13
:102EA000FF7A1479FE1215937FF71232739002E2C3
:102EB000EFF07BFF7A15790A1215937FF1123273C6
:102EC0009002E2EFF07BFF7A157916021593787F76
:102ED000E4F6D8FD7581AB022F15021BBDE493A368
:102EE000F8E493A34003F68001F208DFF48029E4BC
:102EF00093A3F85407240CC8C333C4540F4420C808
:102F0000834004F456800146F6DFE4800B0102049E
:102F1000081020408090322CE47E019360BCA3FF17
:102F2000543F30E509541FFEE493A360010ECF54D3
:102F3000C025E060A840B8E493A3FAE493A3F8E4C2
:102F400093A3C8C582C8CAC583CAF0A3C8C582C82E
:102F5000CAC583CADFE9DEE780BE7FEE123273EFB7
:102F600020E7F77FF7123273E49003CAF0A3F07FF3
:102F7000F7123273EF60F87580FF7590F0C296908B
:102F800003CBE025E0FF9003CAE033FE74002FF589
:102F90008274003EF583E580F074012FF5827400A1
:102FA0003EF583E5A0F0D2969003CBE004F07006E6
:102FB0009003CAE004F0D39003CBE094009003CADE
:102FC000E06480948140A82290039AEBF0A3EAF099
:102FD000A3E9F09003A0EBF0A3EAF0A3E9F09003DB
:102FE0009AE0FBA3E475F0011207D1A9F0FA1207E9
:102FF0005170EB90039B74FFF5F01207BB90039D9B
:10300000E0FBA3E475F0011207D1A9F0FA12075111
:10301000FF90039AE0FBA3E475F0011207D1A9F039
:10302000FAEF12079770D69003A0E0FBA3E0FAA393
:10303000E0F9229003B5E0FBA3E0FAA3E0F99000E9
:1030400003120812FFAEF0E478A6F608F6EE08F6D2
:10305000E408F608F6EF08F618E6FE08E678080831
:103060008005C333CE33CED8F9FF78AAEEF6FC083C
:10307000EFF6FD78A8E6FE08E67808088005CEC3DE
:1030800013CE13D8F9FF78A8EEF608EFF62DFFEE71
:103090003CFE78A6F608EFF6229003C3EBF0A3EA15
:1030A000F0A3E9F09003C3E0FBA3E0FAA3E0F9EAA0
:1030B000494B60279003C3E0FBA3E0FAA3E0F912B9
:1030C000075160179003C3A3E475F0011207D1A95B
:1030D000F0FA120751FF1232AC80D9229003B8EBFC
:1030E000F0A3EAF0A3E9F04A4B60289003B8E0FBB4
:1030F000A3E0FAA3E0F91207519003BBF06014902B
:1031000003B9E475F0011207BB9003BBE0FF123274
:10311000AC80D8229003C6ECF0A3EDF07B017A00DE
:103120007900E4781CF608F6781CE6FE08E6FFD382
:103130009003C7E09F9003C6E09E400D122F5A787F
:103140001D06E61870E20680DF22C0E0C0D075D010
:1031500000C000C007309815AF997842E6062422D7
:10316000F8A6077842E62423F87600C298D007D064
:1031700000D0D0D0E0329003CCEFF0A3EDF07FF799
:10318000123273EF20E7F79003CDE0F5809003CC87
:10319000E0F590C2957F327E00123268D29522907F
:1031A00003BC120A579003BCE0FCA3E0FDA3E0FEC1
:1031B000A3E0FF781012099C1231E89003BCA3A38E
:1031C000E0FEA3E0FF0231E87D807F809003C8EF3E
:1031D000F0A3EDF01232647FF71232C29003C8E020
:1031E0005FFEA3E06E60F0229003CEEEF0A3EFF05E
:1031F0009003CEE0FF1232179003CEA3E0FF02321D
:1032000017C3EF648094B0400BD3EF648094B9503F
:10321000037FFF227F00229003D0EFF0E0C4540F21
:10322000FF1232979003D0E0FF023297014300046F
:103230009700000000420288000042028A0000005D
:103240007FF7123273EF20E7F77FF7123273EF3018
:10325000E6F722438780758DF6759850758920D2E0
:103260008EC299227F647E00EF1FAC0670011E4C57
:1032700070F6227580FF8F90C296AF80D296229012
:1032800002ACE0FBA3E0FAA3E0F922900282E0FBAB
:10329000A3E0FAA3E0F922EF540F9032CD93FF029E
:1032A00032AC7F0D1232AC7F0A0232AC8F9930996A
:1032B000FDC2992278A0E6FE08E6FF22787D120A78
:1032C00012221232C6221232732202317630313289
:0E32D0003334353637383941424344454600E1
:00000001FF
